:100000000C942A000C94A8060C94D1060C94FA06C1
:100010000C9495070C9447000C9447000C944E07E1
:100020000C9447000C9447000C9423070C94470051
:100030000C9447000C9447000C9447000C94470024
:100040000C9447000C9447000C9447000C94470014
:100050000C94470011241FBECFE5D8E0DEBFCDBF12
:1000600010E0A0E6B0E0E8E4F0E102C005900D92F7
:10007000AE36B107D9F720E0AEE6B0E001C01D9280
:10008000A038B207E1F70E9458050C9422080C949E
:10009000000080917200811109C080916F009091E1
:1000A000700001969093700080936F0080916F00B4
:1000B00090917000883E934049F4809162008F5F78
:1000C000809362001092700010926F0080916E0019
:1000D0008230C9F128F4882361F0813011F108954C
:1000E000843009F45AC008F446C0853009F46DC064
:1000F0000895609162008DEC689F812D1124869592
:1001000086958695880F982F990F990F890F681BF0
:1001100080E00E94400580916E008F5F80936E00AA
:100120000895809162006DEC869F612D1124669583
:100130006695669581E00E94400580916E008F5F14
:1001400080936E000895609161008DEC689F812D11
:100150001124869586958695880F982F990F990F6B
:10016000890F681B82E00E94400580916E008F5FBE
:1001700080936E000895809161006DEC869F612DE3
:10018000112466956695669583E00E9440058091EE
:100190006E008F5F80936E000895609160008DEC1B
:1001A000689F812D1124869586958695880F982FB6
:1001B000990F990F890F681B84E00E944005809178
:1001C0006E008F5F80936E000895809160006DECEB
:1001D000869F612D112466956695669585E00E943F
:1001E000400510926E0008950E94D60369E470E005
:1001F0008DE70E9477070E94390562E083E00E9444
:1002000007020E9416020895CF930E945302C82F3E
:1002100003C00E945302C82FCC23D9F30E9453027B
:10022000C817E1F38C2FCF91089580917100882336
:1002300021F0813009F496C0F8CF0E945302833434
:1002400031F481E08093710080937200EECF809151
:1002500062008C3339F4809161008F5F809361007C
:1002600010926200809161008C3339F480916000BB
:100270008F5F8093600010926100809160008831F0
:1002800031F410926200109261001092600080E8D8
:100290000E94410360916000CDEC6C9F612D1124A0
:1002A00066956695669570E080E090E00E94B504E2
:1002B000609160006C9F812D1124869586958695AE
:1002C000880F982F990F990F890F681B70E080E0B5
:1002D00090E00E94B5048AE30E94200460916100CE
:1002E0006C9F612D112466956695669570E080E09F
:1002F00090E00E94B504609161006C9F812D1124F3
:10030000869586958695880F982F990F990F890F56
:10031000681B70E080E090E00E94B5048AE30E94D0
:100320002004609162006C9F612D11246695669592
:10033000669570E080E090E00E94B50460916200F4
:100340006C9FC12D1124C695C695C695CC0F8C2FD8
:10035000880F880FC80F6C1B70E080E090E00E944F
:10036000B50463CF0E9404018D3291F1833421F0F2
:100370008B3209F05ACF0FC0809173008F5F80934A
:100380007300833009F051CF109272001092730005
:10039000109271004ACF80917300813059F480919E
:1003A00061008B3319F4109261003FCF8F5F80930F
:1003B00061003BCF823009F038CF809160008731F7
:1003C00019F41092600031CF8F5F809360002DCFC1
:1003D00080917300813061F480916100811104C0CB
:1003E0008BE38093610021CF8150809361001DCF0A
:1003F000823009F01ACF80916000811104C087E13A
:100400008093600012CF8150809360000ECFCF9315
:10041000DF93C82FD62F40E00E945F0541E06D2F8B
:100420008C2F0E94F905DF91CF91089540E060E0A4
:1004300081E00E945F0540E061E081E00E945F058D
:1004400040E062E081E00E945F0540E063E081E01F
:100450000E945F0541E060E081E00E94F90541E013
:1004600061E081E00E94F90541E062E081E00E94E4
:10047000F90541E063E081E00E94F90541E064E0B4
:1004800081E00E945F0541E065E081E00E945F0538
:1004900041E066E081E00E945F0541E067E081E0C5
:1004A0000E945F05089540E064E081E00E94F90544
:1004B00041E065E081E00E94F90541E066E081E00D
:1004C0000E94F90541E067E081E00E94F90560E0E3
:1004D00081E00E947A06882309F4B3C061E081E0DC
:1004E0000E947A06882309F4AEC062E081E00E948F
:1004F0007A06882309F4A9C063E081E00E947A06A5
:10050000882309F4A4C081E090E00E94C80741E07C
:1005100064E081E00E94F90540E065E081E00E942E
:10052000F90541E066E081E00E94F90541E067E0FD
:1005300081E00E94F90560E081E00E947A0688234C
:1005400009F487C061E081E00E947A06882309F4FB
:1005500082C062E081E00E947A06882309F47DC0AF
:1005600063E081E00E947A06882309F478C081E084
:1005700090E00E94C80741E064E081E00E94F90534
:1005800041E065E081E00E94F90540E066E081E03D
:100590000E94F90541E067E081E00E94F90560E012
:1005A00081E00E947A06882309F45BC061E081E063
:1005B0000E947A06882309F456C062E081E00E9416
:1005C0007A06882309F451C063E081E00E947A062C
:1005D000882309F44CC081E090E00E94C80741E004
:1005E00064E081E00E94F90541E065E081E00E945D
:1005F000F90541E066E081E00E94F90540E067E02E
:1006000081E00E94F90560E081E00E947A0688237B
:1006100081F161E081E00E947A06882361F162E065
:1006200081E00E947A06882341F163E081E00E9424
:100630007A06882321F181E090E00E94C80780E0DB
:10064000089587E3089584E3089581E3089583E49A
:10065000089588E3089585E3089582E3089580E38B
:10066000089589E3089586E3089583E308958DE36B
:1006700008958FE208958AE208958DE208958BE24D
:100680000895CF93C82F40E061E083E00E94F90510
:10069000CC2334F441E066E083E00E94F90505C014
:1006A00040E066E083E00E94F905C6FF06C041E035
:1006B00065E083E00E94F90505C040E065E083E065
:1006C0000E94F905C5FF06C041E064E083E00E9496
:1006D000F90505C040E064E083E00E94F905C4FF2D
:1006E00006C041E063E083E00E94F90505C040E0F8
:1006F00063E083E00E94F90541E060E083E00E944E
:10070000F90581E090E00E94C80740E060E083E0E6
:100710000E94F90581E090E00E94C807C3FF06C06F
:1007200041E066E083E00E94F90505C040E066E034
:1007300083E00E94F905C2FF06C041E065E083E066
:100740000E94F90505C040E065E083E00E94F905DC
:10075000C1FF06C041E064E083E00E94F90505C0E6
:1007600040E064E083E00E94F905C0FF06C041E07C
:1007700063E083E00E94F90505C040E063E083E0A8
:100780000E94F90541E060E083E00E94F90581E004
:1007900090E00E94C80740E060E083E00E94F90515
:1007A00081E090E00E94C807CF91089541E060E0A9
:1007B00083E00E945F0541E061E083E00E945F0505
:1007C00041E063E083E00E945F0541E064E083E094
:1007D0000E945F0541E065E083E00E945F0541E023
:1007E00066E083E00E945F0583E00E94410384E0AD
:1007F00090E00E94C80783E00E94410384E090E0FB
:100800000E94C80783E00E94410384E090E00E94B8
:10081000C80782E00E94410388E20E94410388E009
:100820000E94410381E00E94410386E00E9441034F
:100830008CE00E94410384E190E00E94C807089583
:10084000CF93C82F41E061E083E00E94F905CC23FB
:1008500034F441E066E083E00E94F90505C040E021
:1008600066E083E00E94F905C6FF06C041E065E04E
:1008700083E00E94F90505C040E065E083E00E9446
:10088000F905C5FF06C041E064E083E00E94F90578
:1008900005C040E064E083E00E94F905C4FF06C0A3
:1008A00041E063E083E00E94F90505C040E063E0B9
:1008B00083E00E94F90541E060E083E00E94F905D1
:1008C00081E090E00E94C80740E060E083E00E9481
:1008D000F90581E090E00E94C807C3FF06C041E02F
:1008E00066E083E00E94F90505C040E066E083E031
:1008F0000E94F905C2FF06C041E065E083E00E9466
:10090000F90505C040E065E083E00E94F905C1FFFC
:1009100006C041E064E083E00E94F90505C040E0C4
:1009200064E083E00E94F905C0FF06C041E063E097
:1009300083E00E94F90505C040E063E083E00E9487
:10094000F90541E060E083E00E94F90581E090E074
:100950000E94C80740E060E083E00E94F90581E062
:1009600090E00E94C807CF910895CF92DF92EF9256
:10097000FF921F93CF93DF93CDB7DEB72A970FB6C1
:10098000F894DEBF0FBECDBF6B017C0199235CF4F0
:100990008DE20E942004F094E094D094C094C11C95
:1009A000D11CE11CF11CC114D104E104F104E1F4F7
:1009B00080E30E94200430C0C701B6012AE030E085
:1009C00040E050E00E94E107E1E0F0E0EC0FFD1FA5
:1009D000E10FF11D17FDFA95605D6083C22ED32EE5
:1009E000E42EF52E1F5F01C010E0C114D104E10414
:1009F000F10411F7FF24FA94F10E0CC0E1E0F0E0ED
:100A0000EC0FFD1FEF0DF11DF7FCFA9580810E94A0
:100A10002004FA94FF2094F72A960FB6F894DEBFCC
:100A20000FBECDBFDF91CF911F91FF90EF90DF9070
:100A3000CF90089541E060E080E00E945F0541E0D2
:100A400061E080E00E945F0541E062E080E00E949A
:100A50005F0541E063E080E00E945F0541E064E003
:100A600080E00E945F0541E065E080E00E945F0554
:100A7000089561E082E00E94D0050E941A05089561
:100A8000CF93DF93D82FC62F60E080E00E946A06E4
:100A900041E06D2F80E00E94F905EC2FF0E0ED5968
:100AA000FF4F608182E00E946A06DF91CF91089536
:100AB0000E94F4000E94150180E090E00895442314
:100AC00019F04130C9F10895813091F028F0823059
:100AD000D9F0833029F108952AB381E090E002C073
:100AE000880F991F6A95E2F7809582238ABB089543
:100AF00027B381E090E002C0880F991F6A95E2F762
:100B00008095822387BB089524B381E090E002C0E2
:100B1000880F991F6A95E2F78095822384BB089518
:100B200021B381E090E002C0880F991F6A95E2F737
:100B30008095822381BB0895813089F028F082302E
:100B4000C9F0833011F108952AB381E090E002C02A
:100B5000880F991F6A95E2F7822B8ABB089527B305
:100B600081E090E002C0880F991F6A95E2F7822B1E
:100B700087BB089524B381E090E002C0880F991FDD
:100B80006A95E2F7822B84BB089521B381E090E05F
:100B900002C0880F991F6A95E2F7822B81BB0895E6
:100BA000662319F0613089F00895813041F028F012
:100BB000823039F0833039F008951ABA089517BA9F
:100BC000089514BA089511BA0895813049F028F0B3
:100BD000823049F0833051F008958FEF8ABB089539
:100BE0008FEF87BB08958FEF84BB08958FEF81BB94
:100BF0000895442319F04130C9F10895813091F0EE
:100C000028F08230D9F0833029F108952BB381E0A8
:100C100090E002C0880F991F6A95E2F780958223C1
:100C20008BBB089528B381E090E002C0880F991F24
:100C30006A95E2F78095822388BB089525B381E009
:100C400090E002C0880F991F6A95E2F78095822391
:100C500085BB089522B381E090E002C0880F991F00
:100C60006A95E2F78095822382BB0895813089F0EE
:100C700028F08230C9F0833011F108952BB381E060
:100C800090E002C0880F991F6A95E2F7822B8BBB18
:100C9000089528B381E090E002C0880F991F6A95FB
:100CA000E2F7822B88BB089525B381E090E002C073
:100CB000880F991F6A95E2F7822B85BB089522B3AE
:100CC00081E090E002C0880F991F6A95E2F7822BBD
:100CD00082BB0895813041F028F0823039F08330B2
:100CE00039F008956BBB089568BB089565BB0895FE
:100CF00062BB0895813079F028F08230A9F083300A
:100D0000E1F024C089B390E002C0959587956A957B
:100D1000E2F78170089586B390E002C095958795BB
:100D20006A95E2F78170089583B390E002C09595CB
:100D300087956A95E2F78170089580B390E002C0CC
:100D4000959587956A95E2F78170089580E00895FA
:100D50001F920F920FB60F9211242F933F934F9330
:100D60005F936F937F938F939F93AF93BF93EF9313
:100D7000FF93E0917800F0917900309709F00995A0
:100D8000FF91EF91BF91AF919F918F917F916F9163
:100D90005F914F913F912F910F900FBE0F901F9039
:100DA00018951F920F920FB60F9211242F933F9315
:100DB0004F935F936F937F938F939F93AF93BF9363
:100DC000EF93FF93E0917600F0917700309709F070
:100DD0000995FF91EF91BF91AF919F918F917F9175
:100DE0006F915F914F913F912F910F900FBE0F9098
:100DF0001F9018951F920F920FB60F9211242F93E8
:100E00003F934F935F936F937F938F939F93AF9392
:100E1000BF93EF93FF93E0917400F09175003097CA
:100E200009F00995FF91EF91BF91AF919F918F913B
:100E30007F916F915F914F913F912F910F900FBED6
:100E40000F901F9018951F920F920FB60F921124BA
:100E50000F900FBE0F901F9018952EB521602EBDDC
:100E60002EB528602EBD2FB528602FBD2FB520646C
:100E70002FBD9BBD8ABD89B7806189BF8FB7806850
:100E80008FBF1DBC1CBC70937B0060937A000895DB
:100E90001FBC1EBC89B7837C89BF08951F920F9227
:100EA0000FB60F9211242F933F934F935F936F933D
:100EB0007F938F939F93AF93BF93EF93FF93E091B3
:100EC0007A00F0917B00309709F00995FF91EF913E
:100ED000BF91AF919F918F917F916F915F914F9152
:100EE0003F912F910F900FBE0F901F90189595B5C1
:100EF0009B7F95BD95B5926095BD95B59E7F95BD3F
:100F000095B5906895BD95B5986095BD95B590617E
:100F100095BD83BD89B7806889BF8FB780688FBF53
:100F200070937D0060937C0008951F920F920FB61E
:100F30000F9211242F933F934F935F936F937F935F
:100F40008F939F93AF93BF93EF93FF93E0917C00B8
:100F5000F0917D00309709F00995FF91EF91BF91D5
:100F6000AF919F918F917F916F915F914F913F9141
:100F70002F910F900FBE0F901F90189580917E00BB
:100F800090917F00019690937F0080937E0008955A
:100F9000CF93DF93EC016EEB77E088EE93E00E9455
:100FA0002D0710927F0010927E0080917E0090911C
:100FB0007F008C179D07C8F30E944807DF91CF91EF
:100FC0000895052E97FB1EF400940E94F80757FD24
:100FD00007D00E94000807FC03D04EF40C94F807D9
:100FE00050954095309521953F4F4F4F5F4F089555
:100FF00090958095709561957F4F8F4F9F4F089585
:10100000A1E21A2EAA1BBB1BFD010DC0AA1FBB1F0C
:10101000EE1FFF1FA217B307E407F50720F0A21B7E
:10102000B30BE40BF50B661F771F881F991F1A94EB
:1010300069F760957095809590959B01AC01BD0115
:08104000CF010895F894FFCFE1
:0E1048000B181A014F12064C24200F00040052
:00000001FF
